:10000000F42B00308A000408840A820700347E340E
:10001000FF3406340634003400340034EF347E34C8
:10002000FF3406340534003400340034EF347E34B9
:10003000FF3406340434003400340034EF347E34AA
:0E004000FF3406340E34003400340034EF3444
:1004E4008312031386161A30F100F830F000F00B73
:1004F400792AF10B792A000083120313861208006B
:10050400700871040319872A882A8F2A8312031317
:100514001708F0390C389700932AF030831203132C
:1005240097050800720AF4000130F5000030F60067
:100534009E2A0310F50DF60DF40B9B2A7008750521
:10054400F70071087605F80077087804031DAB2AD4
:10055400AD2A0130AE2A0030080083120313A8002C
:10056400203084000830FF0083138001840AFF0BCD
:10057400B62AAB01AC01831203132B0828078400AD
:100584000120F3002B08203E8400730883138000AD
:100594000130AB070318AC0A0030AC072C08803AD2
:1005A400FF0080307F02031DD92A08302B02031C70
:1005B400DC2ADD2ABD2A700883120313A400710803
:1005C400A5007208A600A901AA0183120313290831
:1005D400203E84008313000899001A30F400F83098
:1005E400F300F30BF32AF40BF32A00000130831217
:1005F4000313A9070318AA0A0030AA072A08803A95
:10060400FF0080307F02031D092B08302902031CE0
:100614000C2B0D2BE72A08000730831203139F04C9
:100624009F111F129F12831603138614061183123F
:1006340003139817831603131812181598168312A8
:100644000313181219308316031399008F30920084
:100654001208F900FA017908FB007A08FC007C080A
:10066400FA007B08F9000310FA0CF90C0310FA0CD9
:10067400F90C79088312031395007C08F1007B08B8
:10068400F0000030F200F3009422003A03194B2BDF
:100694004C2B4F2B8312031317167C08F1007B0895
:1006A400F0000130F2000030F3009422003A031904
:1006B4005C2B5D2B602B8312031397168316031395
:1006C4008611063083120313920083160313051454
:1006D40085108517061486120617061608000E23C1
:1006E400013083120313B0000030B100F001F101B6
:1006F4001430F2000130AF22013083120313B0072B
:100704000318B10A0030B1073108803AFF00803085
:100714007F02031D8F2B05303002031C922B932B79
:10072400782B83120313051C982B992B932B0518F4
:100734009C2B9D2B992B0130F0000030F10082227C
:1007440072228312031385140B3083120313AF0038
:100754002630AE005D30AD00AD0BAE2BAE0BAE2B34
:10076400AF0BAE2B0000831203138510E72B061C7E
:10077400BC2BBD2BC72B0618C02BC12BBD2BF001E6
:10078400F101F2011930AF22722283120313061F02
:10079400CC2BCD2BD72B061BD02BD12BCD2BF00163
:1007A400F101F2011130AF22722283120313061EEB
:1007B400DC2BDD2BE72B061AE02BE12BDD2BF001E4
:1007C400F101F2010930AF22722283120313851F53
:1007D400EC2BED2BB92B0030F000F10082227222B9
:1007E400932B002883120313B201B301B401B501A2
:0C07F400B601B701B801B9018301712BF7
:02400E00503F21
:00000001FF
