:10000000F42B00308A000408840A820700347E340E
:10001000FF3406340634003400340034EF347E34C8
:10002000FF3406340534003400340034EF347E34B9
:10003000FF3406340434003400340034EF347E34AA
:0E004000FF3406340E34003400340034EF3444
:1004D4008312031386161A30F100F830F000F00B83
:1004E400712AF10B712A000083120313861208008B
:1004F4007008710403197F2A802A872A8312031340
:100504001708F0390C3897008B2AF0308312031344
:1005140097050800720AF4000130F5000030F60077
:10052400962A0310F50DF60DF40B932A7008750541
:10053400F70071087605F80077087804031DA32AEC
:10054400A52A0130A62A0030080083120313A8004C
:10055400203084000830FF0083138001840AFF0BDD
:10056400AE2AAB01AC01831203132B0828078400C5
:100574000120F3002B08203E8400730883138000BD
:100584000130AB070318AC0A0030AC072C08803AE2
:10059400FF0080307F02031DD12A08302B02031C88
:1005A400D42AD52AB52A700883120313A40071082B
:1005B400A5007208A600A901AA0183120313290841
:1005C400203E84008313000899001A30F400F830A8
:1005D400F300F30BEB2AF40BEB2A00000130831237
:1005E4000313A9070318AA0A0030AA072A08803AA5
:1005F400FF0080307F02031D012B08302902031CF9
:10060400042B052BDF2A0800831203131F08F83973
:1006140005389F009F128316031386140611831254
:1006240003139817831603131812181598168312B8
:100634000313181219308316031399008F30920094
:100644001208F900FA017908FB007A08FC007C081A
:10065400FA007B08F9000310FA0CF90C0310FA0CE9
:10066400F90C79088312031395007C08F1007B08C8
:10067400F0000030F200F3008C22003A0319432BFF
:10068400442B472B8312031317167C08F1007B08B5
:10069400F0000130F2000030F3008C22003A03191C
:1006A400542B552B582B83120313971683160313BD
:1006B4008611063083120313920083160313051464
:1006C40085118517061486120617061608000623D8
:1006D400013083120313B0000030B100F001F101C6
:1006E4001430F2000130A722013083120313B00743
:1006F4000318B10A0030B1073108803AFF00803096
:100704007F02031D872B05303002031C8A2B8B2BA1
:10071400702B831203139F1F902B912B8B2B051C83
:10072400942B952B8B2B0518982B992B952B0130FB
:10073400F0000030F1007A226A2283120313851537
:100744000B3083120313AF002630AE005D30AD00D2
:10075400AD0BAA2BAE0BAA2BAF0BAA2B0000831256
:1007640003138511E72B0618B82BB92BBD2B9F1B40
:10077400BC2BBD2BC72B0618C02BC12BBD2BF001E6
:10078400F101F2011930A7226A2283120313061F12
:10079400CC2BCD2BD72B061BD02BD12BCD2BF00163
:1007A400F101F2011130A7226A2283120313061EFB
:1007B400DC2BDD2BE72B061AE02BE12BDD2BF001E4
:1007C400F101F2010930A7226A2283120313851F63
:1007D400EC2BED2BB52B0030F000F1007A226A22CD
:1007E4008B2B002883120313B201B301B401B501AA
:0C07F400B601B701B801B9018301692BFF
:02400E00503F21
:00000001FF
