:10000000F42B00308A000408840A820700347E340E
:10001000FF3406340634003400340034EF347E34C8
:10002000FF3406340534003400340034EF347E34B9
:10003000FF3406340434003400340034EF347E34AA
:0E004000FF3406340E34003400340034EF3444
:1004B6008312031386161A30F100F830F000F00BA1
:1004C600622AF10B622A00008312031386120800C7
:1004D600700871040319702A712A782A831203138B
:1004E6001708F0390C3897007C2AF0308312031372
:1004F60097050800720AF4000130F5000030F60096
:10050600872A0310F50DF60DF40B842A700875057D
:10051600F70071087605F80077087804031D942A19
:10052600962A0130972A00300800073083120313F9
:100536009F049F111F129F12831603138614061120
:100546008312031398178316031318121815981697
:100556008312031318121930831603139900FF3000
:1005660092008312031395010030F000F100003071
:10057600F200F3007D22003A0319C22AC32AC62AD2
:100586008312031317160030F000F1000130F20059
:100596000030F3007D22003A0319D22AD32AD62A44
:1005A60083120313971683160313861106308312DC
:1005B600031392008316031305148510851706147A
:1005C600861206170616080083120313A8002030A9
:1005D60084000830FF0083138001840AFF0BEE2A93
:1005E600AB01AC01831203132B08280784000120FA
:1005F600F3002B08203E840073088313800001302B
:10060600AB070318AC0A0030AC072C08803AFF0091
:1006160080307F02031D112B08302B02031C142B84
:10062600152BF52A700883120313A4007108A50080
:100636007208A600A901AA01831203132908203E05
:1006460084008313000899001A30F400F830F30090
:10065600F30B2B2BF40B2B2B00000130831203130F
:10066600A9070318AA0A0030AA072A08803AFF0039
:1006760080307F02031D412B08302902031C442BC6
:10068600452B1F2B080098220130FC000030FD008E
:10069600F001F1011430F2000130E7220130FC07CD
:1006A6000318FD0A0030FD077D08803AFF00803000
:1006B6007F02031D602B05307C02031C632B642B19
:1006C6004B2B83120313051C692B6A2B642B05180D
:1006D6006D2B6E2B6A2B0130F0000030F1006B227F
:1006E6000F30FB003530FA005130F900F90B792B49
:1006F600FA0B792BFB0B792B8312031385141A3013
:10070600FA00F830F900F90B862BFA0B862B00005D
:100716008312031385100B30FB002630FA005D3080
:10072600F900F90B942BFA0B942BFB0B942B9B2BB8
:10073600DB2B061C9F2BA02BBB2B0618A32BA42B55
:10074600A02BF001F101F2011930E7220B30FB007A
:100756002630FA005D30F900F90BAF2BFA0BAF2B00
:10076600FB0BAF2BB62B0030F000F1006B225B22A7
:1007760083120313061FC02BC12BCB2B061BC42BC6
:10078600C52BC12BF001F101F2011130E7225B22EA
:1007960083120313061ED02BD12BDB2B061AD42B68
:1007A600D52BD12BF001F101F2010930E7225B22B2
:1007B60083120313851FE02BE12B9C2B0B30FB00D0
:1007C6002630FA005D30F900F90BE72BFA0BE72B20
:1007D600FB0BE72BEE2B0030F000F1006B22642BB5
:1007E600002883120313AD01AE01AF01B001B101C0
:0A07F600B201B301B4018301462BE8
:02400E00503F21
:00000001FF
