:10000000F42B00308A000408840A820700347E340E
:10001000FF3406340434003400340034EF347E34CA
:10002000FF3406340334003400340034EF347E34BB
:10003000FF3406340634003400340034EF347E34A8
:10004000FF3406340534003400340034EF347E3499
:0E005000FF3406340E34003400340034EF3434
:100454000134700871040319302A312A382A8312AE
:1004640003131708F0390C3897003C2AF030831234
:10047400031397050800720AF4000130F5000030F8
:10048400F600472A0310F50DF60DF40B442A700804
:100494007505F70071087605F80077087804031DE0
:1004A400542A562A0130572A0030080083120313B5
:1004B400A800203084000830FF0083138001840AE0
:1004C400FF0B5F2AAB01AC01831203132B0828072F
:1004D40084000120F3002B08203E8400730883135A
:1004E40080000130AB070318AC0A0030AC072C08BD
:1004F400803AFF0080307F02031D822A08302B02DD
:10050400031C852A862A662A700883120313A40012
:100514007108A5007208A600A901AA018312031399
:100524002908203E84008313000899001A30F4003F
:10053400F830F300F30B9C2AF40B9C2A00000130E2
:1005440083120313A9070318AA0A0030AA072A086A
:10055400803AFF0080307F02031DB22A083029024E
:10056400031CB52AB62A902A0800831203131F0815
:10057400F83905389F009F12831603138614061159
:100584008312031398178316031318121815981659
:1005940083120313181219308316031399008F3032
:1005A40092001208F900FA017908FB007A08FC00AD
:1005B4007C08FA007B08F9000310FA0CF90C03100C
:1005C400FA0CF90C79088312031395007C08F100E6
:1005D4007B08F0000030F200F3003D22003A0319DA
:1005E400F42AF52AF82A8312031317167C08F1005B
:1005F4007B08F0000130F2000030F3003D22003AA5
:100604000319052B062B092B831203139716831644
:100614000313861106308312031392008316031307
:100624000514851185170614061706160516861275
:10063400861305130800B722013083120313B00098
:100644000030B100F001F1011430F20011305822F1
:10065400013083120313B0070318B10A0030B10745
:100664003108803AFF0080307F02031D3B2B0530A8
:100674003002031C3E2B3F2B242B831203138616BC
:100684008613051383120313051E492B4A2B6E2B65
:10069400051A4D2B4E2B4A2B03303A06031D532BC0
:1006A400542B572BBA01BA0A5B2B0130AD002D082D
:1006B400BA073A03031D5F2B602B632B05138616C1
:1006C4006E2B02303A06031D682B692B6C2B8612A5
:1006D40086176E2B861305179F1F712B722B442BC5
:1006E400051C752B762B442B0518792B7A2B762B2E
:1006F4000130F0000030F1002B2209308312031383
:10070400AF001E30AE00E430AD00AD0B872BAE0B56
:10071400872BAF0B872BF001F101831203133A08E7
:10072400F20009305822D92B0618992B9A2B9E2BAC
:100734009F1B9D2B9E2BBA2B0618A12BA22B9E2B05
:10074400F001F101F2012130582206308312031323
:10075400AF001330AE00AD30AD00AD0BAF2BAE0B20
:10076400AF2BAF0BAF2B00000030F000F1002B22B9
:1007740083120313061FBF2BC02BCA2B061BC32BCC
:10078400C42BC02BF001F1010230F20009305822D1
:1007940083120313061ECF2BD02BD92B061AD32B6F
:1007A400D42BD02BF001F101F2011930582283121D
:1007B4000313851FDE2BDF2B962B063083120313C6
:1007C400AF001330AE00AD30AD00AD0BE72BAE0B78
:1007D400E72BAF0BE72B00000030F000F1002B22D9
:1007E400442B00282A22BA00B201B301B401B50196
:0C07F400B601B701B801B90183011D2B4B
:02400E00503F21
:00000001FF
